{
  "contractName": "FBXNFT",
  "abi": [
    {
      "inputs": [],
      "stateMutability": "nonpayable",
      "type": "constructor"
    },
    {
      "anonymous": false,
      "inputs": [
        {
          "indexed": true,
          "internalType": "address",
          "name": "owner",
          "type": "address"
        },
        {
          "indexed": true,
          "internalType": "address",
          "name": "approved",
          "type": "address"
        },
        {
          "indexed": true,
          "internalType": "uint256",
          "name": "tokenId",
          "type": "uint256"
        }
      ],
      "name": "Approval",
      "type": "event"
    },
    {
      "anonymous": false,
      "inputs": [
        {
          "indexed": true,
          "internalType": "address",
          "name": "owner",
          "type": "address"
        },
        {
          "indexed": true,
          "internalType": "address",
          "name": "operator",
          "type": "address"
        },
        {
          "indexed": false,
          "internalType": "bool",
          "name": "approved",
          "type": "bool"
        }
      ],
      "name": "ApprovalForAll",
      "type": "event"
    },
    {
      "anonymous": false,
      "inputs": [
        {
          "indexed": false,
          "internalType": "uint256",
          "name": "_fromTokenId",
          "type": "uint256"
        },
        {
          "indexed": false,
          "internalType": "uint256",
          "name": "_toTokenId",
          "type": "uint256"
        }
      ],
      "name": "BatchMetadataUpdate",
      "type": "event"
    },
    {
      "anonymous": false,
      "inputs": [
        {
          "indexed": true,
          "internalType": "uint256",
          "name": "tokenId",
          "type": "uint256"
        },
        {
          "indexed": false,
          "internalType": "uint256",
          "name": "price",
          "type": "uint256"
        },
        {
          "indexed": false,
          "internalType": "bool",
          "name": "forSale",
          "type": "bool"
        }
      ],
      "name": "ListedNFT",
      "type": "event"
    },
    {
      "anonymous": false,
      "inputs": [
        {
          "indexed": false,
          "internalType": "uint256",
          "name": "_tokenId",
          "type": "uint256"
        }
      ],
      "name": "MetadataUpdate",
      "type": "event"
    },
    {
      "anonymous": false,
      "inputs": [
        {
          "indexed": true,
          "internalType": "address",
          "name": "owner",
          "type": "address"
        },
        {
          "indexed": true,
          "internalType": "uint256",
          "name": "tokenId",
          "type": "uint256"
        },
        {
          "indexed": false,
          "internalType": "string",
          "name": "tokenUrl",
          "type": "string"
        }
      ],
      "name": "MintedNFT",
      "type": "event"
    },
    {
      "anonymous": false,
      "inputs": [
        {
          "indexed": true,
          "internalType": "uint256",
          "name": "tokenId",
          "type": "uint256"
        },
        {
          "indexed": true,
          "internalType": "address",
          "name": "newOwner",
          "type": "address"
        },
        {
          "indexed": false,
          "internalType": "uint256",
          "name": "price",
          "type": "uint256"
        }
      ],
      "name": "PurchasedNFT",
      "type": "event"
    },
    {
      "anonymous": false,
      "inputs": [
        {
          "indexed": true,
          "internalType": "address",
          "name": "from",
          "type": "address"
        },
        {
          "indexed": true,
          "internalType": "address",
          "name": "to",
          "type": "address"
        },
        {
          "indexed": true,
          "internalType": "uint256",
          "name": "tokenId",
          "type": "uint256"
        }
      ],
      "name": "Transfer",
      "type": "event"
    },
    {
      "inputs": [
        {
          "internalType": "address",
          "name": "to",
          "type": "address"
        },
        {
          "internalType": "uint256",
          "name": "tokenId",
          "type": "uint256"
        }
      ],
      "name": "approve",
      "outputs": [],
      "stateMutability": "nonpayable",
      "type": "function"
    },
    {
      "inputs": [
        {
          "internalType": "address",
          "name": "owner",
          "type": "address"
        }
      ],
      "name": "balanceOf",
      "outputs": [
        {
          "internalType": "uint256",
          "name": "",
          "type": "uint256"
        }
      ],
      "stateMutability": "view",
      "type": "function"
    },
    {
      "inputs": [
        {
          "internalType": "uint256",
          "name": "tokenId",
          "type": "uint256"
        }
      ],
      "name": "getApproved",
      "outputs": [
        {
          "internalType": "address",
          "name": "",
          "type": "address"
        }
      ],
      "stateMutability": "view",
      "type": "function"
    },
    {
      "inputs": [
        {
          "internalType": "address",
          "name": "owner",
          "type": "address"
        },
        {
          "internalType": "address",
          "name": "operator",
          "type": "address"
        }
      ],
      "name": "isApprovedForAll",
      "outputs": [
        {
          "internalType": "bool",
          "name": "",
          "type": "bool"
        }
      ],
      "stateMutability": "view",
      "type": "function"
    },
    {
      "inputs": [],
      "name": "name",
      "outputs": [
        {
          "internalType": "string",
          "name": "",
          "type": "string"
        }
      ],
      "stateMutability": "view",
      "type": "function"
    },
    {
      "inputs": [
        {
          "internalType": "uint256",
          "name": "",
          "type": "uint256"
        }
      ],
      "name": "nfts",
      "outputs": [
        {
          "internalType": "uint256",
          "name": "tokenId",
          "type": "uint256"
        },
        {
          "internalType": "address payable",
          "name": "owner",
          "type": "address"
        },
        {
          "internalType": "uint256",
          "name": "price",
          "type": "uint256"
        },
        {
          "internalType": "bool",
          "name": "forSale",
          "type": "bool"
        }
      ],
      "stateMutability": "view",
      "type": "function"
    },
    {
      "inputs": [
        {
          "internalType": "uint256",
          "name": "tokenId",
          "type": "uint256"
        }
      ],
      "name": "ownerOf",
      "outputs": [
        {
          "internalType": "address",
          "name": "",
          "type": "address"
        }
      ],
      "stateMutability": "view",
      "type": "function"
    },
    {
      "inputs": [
        {
          "internalType": "address",
          "name": "from",
          "type": "address"
        },
        {
          "internalType": "address",
          "name": "to",
          "type": "address"
        },
        {
          "internalType": "uint256",
          "name": "tokenId",
          "type": "uint256"
        }
      ],
      "name": "safeTransferFrom",
      "outputs": [],
      "stateMutability": "nonpayable",
      "type": "function"
    },
    {
      "inputs": [
        {
          "internalType": "address",
          "name": "from",
          "type": "address"
        },
        {
          "internalType": "address",
          "name": "to",
          "type": "address"
        },
        {
          "internalType": "uint256",
          "name": "tokenId",
          "type": "uint256"
        },
        {
          "internalType": "bytes",
          "name": "data",
          "type": "bytes"
        }
      ],
      "name": "safeTransferFrom",
      "outputs": [],
      "stateMutability": "nonpayable",
      "type": "function"
    },
    {
      "inputs": [
        {
          "internalType": "address",
          "name": "operator",
          "type": "address"
        },
        {
          "internalType": "bool",
          "name": "approved",
          "type": "bool"
        }
      ],
      "name": "setApprovalForAll",
      "outputs": [],
      "stateMutability": "nonpayable",
      "type": "function"
    },
    {
      "inputs": [
        {
          "internalType": "bytes4",
          "name": "interfaceId",
          "type": "bytes4"
        }
      ],
      "name": "supportsInterface",
      "outputs": [
        {
          "internalType": "bool",
          "name": "",
          "type": "bool"
        }
      ],
      "stateMutability": "view",
      "type": "function"
    },
    {
      "inputs": [],
      "name": "symbol",
      "outputs": [
        {
          "internalType": "string",
          "name": "",
          "type": "string"
        }
      ],
      "stateMutability": "view",
      "type": "function"
    },
    {
      "inputs": [
        {
          "internalType": "uint256",
          "name": "tokenId",
          "type": "uint256"
        }
      ],
      "name": "tokenURI",
      "outputs": [
        {
          "internalType": "string",
          "name": "",
          "type": "string"
        }
      ],
      "stateMutability": "view",
      "type": "function"
    },
    {
      "inputs": [
        {
          "internalType": "address",
          "name": "from",
          "type": "address"
        },
        {
          "internalType": "address",
          "name": "to",
          "type": "address"
        },
        {
          "internalType": "uint256",
          "name": "tokenId",
          "type": "uint256"
        }
      ],
      "name": "transferFrom",
      "outputs": [],
      "stateMutability": "nonpayable",
      "type": "function"
    },
    {
      "inputs": [
        {
          "internalType": "string",
          "name": "tokenUrl",
          "type": "string"
        }
      ],
      "name": "createNFT",
      "outputs": [
        {
          "internalType": "uint256",
          "name": "",
          "type": "uint256"
        }
      ],
      "stateMutability": "nonpayable",
      "type": "function"
    },
    {
      "inputs": [
        {
          "internalType": "uint256",
          "name": "tokenId",
          "type": "uint256"
        },
        {
          "internalType": "uint256",
          "name": "price",
          "type": "uint256"
        }
      ],
      "name": "listNFT",
      "outputs": [],
      "stateMutability": "nonpayable",
      "type": "function"
    },
    {
      "inputs": [
        {
          "internalType": "uint256",
          "name": "tokenId",
          "type": "uint256"
        }
      ],
      "name": "buyNFT",
      "outputs": [],
      "stateMutability": "payable",
      "type": "function"
    },
    {
      "inputs": [
        {
          "internalType": "uint256",
          "name": "tokenId",
          "type": "uint256"
        }
      ],
      "name": "cancelSale",
      "outputs": [],
      "stateMutability": "nonpayable",
      "type": "function"
    }
  ],
  "bytecode": "0x60806040523480156200001157600080fd5b506040518060400160405280600a815260200169105b9d9a5b0cd913919560b21b815250604051806040016040528060058152602001641053958cd160da1b815250816000908162000064919062000133565b50600162000073828262000133565b5050600880546001600160a01b0319163317905550620001ff565b634e487b7160e01b600052604160045260246000fd5b600181811c90821680620000b957607f821691505b602082108103620000da57634e487b7160e01b600052602260045260246000fd5b50919050565b601f8211156200012e57600081815260208120601f850160051c81016020861015620001095750805b601f850160051c820191505b818110156200012a5782815560010162000115565b5050505b505050565b81516001600160401b038111156200014f576200014f6200008e565b6200016781620001608454620000a4565b84620000e0565b602080601f8311600181146200019f5760008415620001865750858301515b600019600386901b1c1916600185901b1785556200012a565b600085815260208120601f198616915b82811015620001d057888601518255948401946001909101908401620001af565b5085821015620001ef5787850151600019600388901b60f8161c191681555b5050505050600190811b01905550565b611c8e806200020f6000396000f3fe6080604052600436106101095760003560e01c806370a0823111610095578063b88d4fde11610064578063b88d4fde1461032e578063bd94b0051461034e578063c87b56dd1461036e578063da2ed03e1461038e578063e985e9c5146103ae57600080fd5b806370a08231146102ab57806394383f14146102d957806395d89b41146102f9578063a22cb4651461030e57600080fd5b806323b872dd116100dc57806323b872dd146101bf578063265aa621146101df57806342842e0e1461025857806351ed8288146102785780636352211e1461028b57600080fd5b806301ffc9a71461010e57806306fdde0314610143578063081812fc14610165578063095ea7b31461019d575b600080fd5b34801561011a57600080fd5b5061012e61012936600461168b565b6103f7565b60405190151581526020015b60405180910390f35b34801561014f57600080fd5b50610158610422565b60405161013a91906116f8565b34801561017157600080fd5b5061018561018036600461170b565b6104b4565b6040516001600160a01b03909116815260200161013a565b3480156101a957600080fd5b506101bd6101b8366004611740565b6104db565b005b3480156101cb57600080fd5b506101bd6101da36600461176a565b6105f5565b3480156101eb57600080fd5b5061022e6101fa36600461170b565b600960205260009081526040902080546001820154600283015460039093015491926001600160a01b039091169160ff1684565b604080519485526001600160a01b039093166020850152918301521515606082015260800161013a565b34801561026457600080fd5b506101bd61027336600461176a565b610626565b6101bd61028636600461170b565b610641565b34801561029757600080fd5b506101856102a636600461170b565b6107ea565b3480156102b757600080fd5b506102cb6102c63660046117a6565b61084a565b60405190815260200161013a565b3480156102e557600080fd5b506101bd6102f43660046117c1565b6108d0565b34801561030557600080fd5b506101586109e4565b34801561031a57600080fd5b506101bd6103293660046117e3565b6109f3565b34801561033a57600080fd5b506101bd6103493660046118ab565b610a02565b34801561035a57600080fd5b506101bd61036936600461170b565b610a3a565b34801561037a57600080fd5b5061015861038936600461170b565b610b02565b34801561039a57600080fd5b506102cb6103a9366004611927565b610c12565b3480156103ba57600080fd5b5061012e6103c9366004611970565b6001600160a01b03918216600090815260056020908152604080832093909416825291909152205460ff1690565b60006001600160e01b03198216632483248360e11b148061041c575061041c82610cf7565b92915050565b606060008054610431906119a3565b80601f016020809104026020016040519081016040528092919081815260200182805461045d906119a3565b80156104aa5780601f1061047f576101008083540402835291602001916104aa565b820191906000526020600020905b81548152906001019060200180831161048d57829003601f168201915b5050505050905090565b60006104bf82610d47565b506000908152600460205260409020546001600160a01b031690565b60006104e6826107ea565b9050806001600160a01b0316836001600160a01b0316036105585760405162461bcd60e51b815260206004820152602160248201527f4552433732313a20617070726f76616c20746f2063757272656e74206f776e656044820152603960f91b60648201526084015b60405180910390fd5b336001600160a01b0382161480610574575061057481336103c9565b6105e65760405162461bcd60e51b815260206004820152603d60248201527f4552433732313a20617070726f76652063616c6c6572206973206e6f7420746f60448201527f6b656e206f776e6572206f7220617070726f76656420666f7220616c6c000000606482015260840161054f565b6105f08383610da9565b505050565b6105ff3382610e17565b61061b5760405162461bcd60e51b815260040161054f906119dd565b6105f0838383610e95565b6105f083838360405180602001604052806000815250610a02565b60008181526009602090815260409182902082516080810184528154815260018201546001600160a01b03169281019290925260028101549282019290925260039091015460ff161515606082018190526106de5760405162461bcd60e51b815260206004820152601860248201527f54686973204e4654206973206e6f7420666f722073616c650000000000000000604482015260640161054f565b806040015134146107315760405162461bcd60e51b815260206004820152601e60248201527f506c65617365207375626d6974207468652061736b696e672070726963650000604482015260640161054f565b6020810151610741813385610e95565b6040516001600160a01b038216903480156108fc02916000818181858888f19350505050158015610776573d6000803e3d6000fd5b506000838152600960209081526040918290206001810180546001600160a01b031916339081179091556003909101805460ff191690558483015192519283529185917f974da72b358c455f25531e693d264fff7df162c73646f2b075d94b01794c51be91015b60405180910390a3505050565b6000818152600260205260408120546001600160a01b03168061041c5760405162461bcd60e51b8152602060048201526018602482015277115490cdcc8c4e881a5b9d985b1a59081d1bdad95b88125160421b604482015260640161054f565b60006001600160a01b0382166108b45760405162461bcd60e51b815260206004820152602960248201527f4552433732313a2061646472657373207a65726f206973206e6f7420612076616044820152683634b21037bbb732b960b91b606482015260840161054f565b506001600160a01b031660009081526003602052604090205490565b336108da836107ea565b6001600160a01b0316146109305760405162461bcd60e51b815260206004820181905260248201527f4f6e6c7920746865206f776e65722063616e206c6973742074686973204e4654604482015260640161054f565b600081116109805760405162461bcd60e51b815260206004820152601f60248201527f5072696365206d7573742062652067726561746572207468616e207a65726f00604482015260640161054f565b60008281526009602090815260409182902060028101849055600301805460ff1916600190811790915582518481529182015283917ff5c4af1e262b53595cbdd844421ffb0e0b682d9b64067c00ac7435756eb26e12910160405180910390a25050565b606060018054610431906119a3565b6109fe338383610ff9565b5050565b610a0c3383610e17565b610a285760405162461bcd60e51b815260040161054f906119dd565b610a34848484846110bf565b50505050565b33610a44826107ea565b6001600160a01b031614610aa55760405162461bcd60e51b815260206004820152602260248201527f4f6e6c7920746865206f776e65722063616e2063616e63656c207468652073616044820152616c6560f01b606482015260840161054f565b600081815260096020908152604080832060038101805460ff191690556002015481519081529182019290925282917ff5c4af1e262b53595cbdd844421ffb0e0b682d9b64067c00ac7435756eb26e12910160405180910390a250565b6060610b0d82610d47565b60008281526006602052604081208054610b26906119a3565b80601f0160208091040260200160405190810160405280929190818152602001828054610b52906119a3565b8015610b9f5780601f10610b7457610100808354040283529160200191610b9f565b820191906000526020600020905b815481529060010190602001808311610b8257829003601f168201915b505050505090506000610bbd60408051602081019091526000815290565b90508051600003610bcf575092915050565b815115610c01578082604051602001610be9929190611a2a565b60405160208183030381529060405292505050919050565b610c0a846110f2565b949350505050565b6000610c22600780546001019055565b6000610c2d60075490565b9050610c393382611166565b610c438184611180565b604080516080810182528281523360208083018281526000848601818152606086018281528883526009909452908690209451855590516001850180546001600160a01b0319166001600160a01b03909216919091179055516002840155516003909201805460ff19169215159290921790915590518291907f9f0432214927ca5d54e705bee45cb45cd0b88d9c6bc15906cc3498feb1d8131090610ce99087906116f8565b60405180910390a392915050565b60006001600160e01b031982166380ac58cd60e01b1480610d2857506001600160e01b03198216635b5e139f60e01b145b8061041c57506301ffc9a760e01b6001600160e01b031983161461041c565b6000818152600260205260409020546001600160a01b0316610da65760405162461bcd60e51b8152602060048201526018602482015277115490cdcc8c4e881a5b9d985b1a59081d1bdad95b88125160421b604482015260640161054f565b50565b600081815260046020526040902080546001600160a01b0319166001600160a01b0384169081179091558190610dde826107ea565b6001600160a01b03167f8c5be1e5ebec7d5bd14f71427d1e84f3dd0314c0f7b2291e5b200ac8c7c3b92560405160405180910390a45050565b600080610e23836107ea565b9050806001600160a01b0316846001600160a01b03161480610e6a57506001600160a01b0380821660009081526005602090815260408083209388168352929052205460ff165b80610c0a5750836001600160a01b0316610e83846104b4565b6001600160a01b031614949350505050565b826001600160a01b0316610ea8826107ea565b6001600160a01b031614610ece5760405162461bcd60e51b815260040161054f90611a59565b6001600160a01b038216610f305760405162461bcd60e51b8152602060048201526024808201527f4552433732313a207472616e7366657220746f20746865207a65726f206164646044820152637265737360e01b606482015260840161054f565b826001600160a01b0316610f43826107ea565b6001600160a01b031614610f695760405162461bcd60e51b815260040161054f90611a59565b600081815260046020908152604080832080546001600160a01b03199081169091556001600160a01b0387811680865260038552838620805460001901905590871680865283862080546001019055868652600290945282852080549092168417909155905184937fddf252ad1be2c89b69c2b068fc378daa952ba7f163c4a11628f55a4df523b3ef91a4505050565b816001600160a01b0316836001600160a01b03160361105a5760405162461bcd60e51b815260206004820152601960248201527f4552433732313a20617070726f766520746f2063616c6c657200000000000000604482015260640161054f565b6001600160a01b03838116600081815260056020908152604080832094871680845294825291829020805460ff191686151590811790915591519182527f17307eab39ab6107e8899845ad3d59bd9653f200f220920489ca2b5937696c3191016107dd565b6110ca848484610e95565b6110d68484848461124b565b610a345760405162461bcd60e51b815260040161054f90611a9e565b60606110fd82610d47565b600061111460408051602081019091526000815290565b90506000815111611134576040518060200160405280600081525061115f565b8061113e8461134c565b60405160200161114f929190611a2a565b6040516020818303038152906040525b9392505050565b6109fe8282604051806020016040528060008152506113df565b6000828152600260205260409020546001600160a01b03166111fb5760405162461bcd60e51b815260206004820152602e60248201527f45524337323155524953746f726167653a2055524920736574206f66206e6f6e60448201526d32bc34b9ba32b73a103a37b5b2b760911b606482015260840161054f565b60008281526006602052604090206112138282611b3e565b506040518281527ff8e1a15aba9398e019f0b49df1a4fde98ee17ae345cb5f6b5e2c27f5033e8ce79060200160405180910390a15050565b60006001600160a01b0384163b1561134157604051630a85bd0160e11b81526001600160a01b0385169063150b7a029061128f903390899088908890600401611bfe565b6020604051808303816000875af19250505080156112ca575060408051601f3d908101601f191682019092526112c791810190611c3b565b60015b611327573d8080156112f8576040519150601f19603f3d011682016040523d82523d6000602084013e6112fd565b606091505b50805160000361131f5760405162461bcd60e51b815260040161054f90611a9e565b805181602001fd5b6001600160e01b031916630a85bd0160e11b149050610c0a565b506001949350505050565b6060600061135983611412565b600101905060008167ffffffffffffffff8111156113795761137961181f565b6040519080825280601f01601f1916602001820160405280156113a3576020820181803683370190505b5090508181016020015b600019016f181899199a1a9b1b9c1cb0b131b232b360811b600a86061a8153600a85049450846113ad57509392505050565b6113e983836114ea565b6113f6600084848461124b565b6105f05760405162461bcd60e51b815260040161054f90611a9e565b60008072184f03e93ff9f4daa797ed6e38ed64bf6a1f0160401b83106114515772184f03e93ff9f4daa797ed6e38ed64bf6a1f0160401b830492506040015b6d04ee2d6d415b85acef8100000000831061147d576d04ee2d6d415b85acef8100000000830492506020015b662386f26fc10000831061149b57662386f26fc10000830492506010015b6305f5e10083106114b3576305f5e100830492506008015b61271083106114c757612710830492506004015b606483106114d9576064830492506002015b600a831061041c5760010192915050565b6001600160a01b0382166115405760405162461bcd60e51b815260206004820181905260248201527f4552433732313a206d696e7420746f20746865207a65726f2061646472657373604482015260640161054f565b6000818152600260205260409020546001600160a01b0316156115a55760405162461bcd60e51b815260206004820152601c60248201527f4552433732313a20746f6b656e20616c7265616479206d696e74656400000000604482015260640161054f565b6000818152600260205260409020546001600160a01b03161561160a5760405162461bcd60e51b815260206004820152601c60248201527f4552433732313a20746f6b656e20616c7265616479206d696e74656400000000604482015260640161054f565b6001600160a01b038216600081815260036020908152604080832080546001019055848352600290915280822080546001600160a01b0319168417905551839291907fddf252ad1be2c89b69c2b068fc378daa952ba7f163c4a11628f55a4df523b3ef908290a45050565b6001600160e01b031981168114610da657600080fd5b60006020828403121561169d57600080fd5b813561115f81611675565b60005b838110156116c35781810151838201526020016116ab565b50506000910152565b600081518084526116e48160208601602086016116a8565b601f01601f19169290920160200192915050565b60208152600061115f60208301846116cc565b60006020828403121561171d57600080fd5b5035919050565b80356001600160a01b038116811461173b57600080fd5b919050565b6000806040838503121561175357600080fd5b61175c83611724565b946020939093013593505050565b60008060006060848603121561177f57600080fd5b61178884611724565b925061179660208501611724565b9150604084013590509250925092565b6000602082840312156117b857600080fd5b61115f82611724565b600080604083850312156117d457600080fd5b50508035926020909101359150565b600080604083850312156117f657600080fd5b6117ff83611724565b91506020830135801515811461181457600080fd5b809150509250929050565b634e487b7160e01b600052604160045260246000fd5b600067ffffffffffffffff808411156118505761185061181f565b604051601f8501601f19908116603f011681019082821181831017156118785761187861181f565b8160405280935085815286868601111561189157600080fd5b858560208301376000602087830101525050509392505050565b600080600080608085870312156118c157600080fd5b6118ca85611724565b93506118d860208601611724565b925060408501359150606085013567ffffffffffffffff8111156118fb57600080fd5b8501601f8101871361190c57600080fd5b61191b87823560208401611835565b91505092959194509250565b60006020828403121561193957600080fd5b813567ffffffffffffffff81111561195057600080fd5b8201601f8101841361196157600080fd5b610c0a84823560208401611835565b6000806040838503121561198357600080fd5b61198c83611724565b915061199a60208401611724565b90509250929050565b600181811c908216806119b757607f821691505b6020821081036119d757634e487b7160e01b600052602260045260246000fd5b50919050565b6020808252602d908201527f4552433732313a2063616c6c6572206973206e6f7420746f6b656e206f776e6560408201526c1c881bdc88185c1c1c9bdd9959609a1b606082015260800190565b60008351611a3c8184602088016116a8565b835190830190611a508183602088016116a8565b01949350505050565b60208082526025908201527f4552433732313a207472616e736665722066726f6d20696e636f72726563742060408201526437bbb732b960d91b606082015260800190565b60208082526032908201527f4552433732313a207472616e7366657220746f206e6f6e20455243373231526560408201527131b2b4bb32b91034b6b83632b6b2b73a32b960711b606082015260800190565b601f8211156105f057600081815260208120601f850160051c81016020861015611b175750805b601f850160051c820191505b81811015611b3657828155600101611b23565b505050505050565b815167ffffffffffffffff811115611b5857611b5861181f565b611b6c81611b6684546119a3565b84611af0565b602080601f831160018114611ba15760008415611b895750858301515b600019600386901b1c1916600185901b178555611b36565b600085815260208120601f198616915b82811015611bd057888601518255948401946001909101908401611bb1565b5085821015611bee5787850151600019600388901b60f8161c191681555b5050505050600190811b01905550565b6001600160a01b0385811682528416602082015260408101839052608060608201819052600090611c31908301846116cc565b9695505050505050565b600060208284031215611c4d57600080fd5b815161115f8161167556fea2646970667358221220763e5dbae1591d12644256506780b6aa0839daca047c7ef4da6be1194497e72764736f6c63430008130033",
  "immutableReferences": {},
  "source": "// SPDX-License-Identifier: MIT\npragma solidity 0.8.19;\n\nimport \"../node_modules/@openzeppelin/contracts/token/ERC721/extensions/ERC721URIStorage.sol\";\nimport \"../node_modules/@openzeppelin/contracts/utils/Counters.sol\";\n\ncontract FBXNFT is ERC721URIStorage {\n    using Counters for Counters.Counter;\n    Counters.Counter private _tokenIdCounter;\n\n    address admin;\n\n    struct NFT {\n        uint256 tokenId;\n        address payable owner;\n        uint256 price;\n        bool forSale;\n    }\n\n    mapping(uint256 => NFT) public nfts;\n\n    event MintedNFT(\n        address indexed owner,\n        uint256 indexed tokenId,\n        string tokenUrl\n    );\n\n    event ListedNFT(uint256 indexed tokenId, uint256 price, bool forSale);\n\n    event PurchasedNFT(\n        uint256 indexed tokenId,\n        address indexed newOwner,\n        uint256 price\n    );\n\n    constructor() ERC721(\"Anvil3dNFT\", \"ANV3D\") {\n        admin = msg.sender;\n    }\n\n    function createNFT(string memory tokenUrl) public returns (uint256) {\n        _tokenIdCounter.increment();\n        uint256 newTokenId = _tokenIdCounter.current();\n\n        _safeMint(msg.sender, newTokenId);\n        _setTokenURI(newTokenId, tokenUrl);\n\n        nfts[newTokenId] = NFT(newTokenId, payable(msg.sender), 0, false);\n\n        emit MintedNFT(msg.sender, newTokenId, tokenUrl);\n\n        return newTokenId;\n    }\n\n    function listNFT(uint256 tokenId, uint256 price) public {\n        require(\n            ownerOf(tokenId) == msg.sender,\n            \"Only the owner can list this NFT\"\n        );\n        require(price > 0, \"Price must be greater than zero\");\n\n        nfts[tokenId].price = price;\n        nfts[tokenId].forSale = true;\n\n        emit ListedNFT(tokenId, price, true);\n    }\n\n    function buyNFT(uint256 tokenId) public payable {\n        NFT memory nft = nfts[tokenId];\n        require(nft.forSale, \"This NFT is not for sale\");\n        require(msg.value == nft.price, \"Please submit the asking price\");\n\n        address payable seller = nft.owner;\n        _transfer(seller, msg.sender, tokenId);\n\n        seller.transfer(msg.value);\n\n        nfts[tokenId].owner = payable(msg.sender);\n        nfts[tokenId].forSale = false;\n\n        emit PurchasedNFT(tokenId, msg.sender, nft.price);\n    }\n\n    function cancelSale(uint256 tokenId) public {\n        require(\n            ownerOf(tokenId) == msg.sender,\n            \"Only the owner can cancel the sale\"\n        );\n\n        nfts[tokenId].forSale = false;\n\n        emit ListedNFT(tokenId, nfts[tokenId].price, false);\n    }\n}\n",
  "sourcePath": "/Users/jeonghyun/Desktop/abvil-ai/frontend/contracts/FBXNFT.sol",
  "compiler": {
    "name": "solc",
    "version": "0.8.19+commit.7dd6d404.Emscripten.clang"
  },
  "schemaVersion": "3.4.16",
  "updatedAt": "2024-07-13T10:59:57.915Z",
  "devdoc": {
    "events": {
      "Approval(address,address,uint256)": {
        "details": "Emitted when `owner` enables `approved` to manage the `tokenId` token."
      },
      "ApprovalForAll(address,address,bool)": {
        "details": "Emitted when `owner` enables or disables (`approved`) `operator` to manage all of its assets."
      },
      "BatchMetadataUpdate(uint256,uint256)": {
        "details": "This event emits when the metadata of a range of tokens is changed. So that the third-party platforms such as NFT market could timely update the images and related attributes of the NFTs."
      },
      "MetadataUpdate(uint256)": {
        "details": "This event emits when the metadata of a token is changed. So that the third-party platforms such as NFT market could timely update the images and related attributes of the NFT."
      },
      "Transfer(address,address,uint256)": {
        "details": "Emitted when `tokenId` token is transferred from `from` to `to`."
      }
    },
    "kind": "dev",
    "methods": {
      "approve(address,uint256)": {
        "details": "See {IERC721-approve}."
      },
      "balanceOf(address)": {
        "details": "See {IERC721-balanceOf}."
      },
      "getApproved(uint256)": {
        "details": "See {IERC721-getApproved}."
      },
      "isApprovedForAll(address,address)": {
        "details": "See {IERC721-isApprovedForAll}."
      },
      "name()": {
        "details": "See {IERC721Metadata-name}."
      },
      "ownerOf(uint256)": {
        "details": "See {IERC721-ownerOf}."
      },
      "safeTransferFrom(address,address,uint256)": {
        "details": "See {IERC721-safeTransferFrom}."
      },
      "safeTransferFrom(address,address,uint256,bytes)": {
        "details": "See {IERC721-safeTransferFrom}."
      },
      "setApprovalForAll(address,bool)": {
        "details": "See {IERC721-setApprovalForAll}."
      },
      "supportsInterface(bytes4)": {
        "details": "See {IERC165-supportsInterface}"
      },
      "symbol()": {
        "details": "See {IERC721Metadata-symbol}."
      },
      "tokenURI(uint256)": {
        "details": "See {IERC721Metadata-tokenURI}."
      },
      "transferFrom(address,address,uint256)": {
        "details": "See {IERC721-transferFrom}."
      }
    },
    "version": 1
  },
  "userdoc": {
    "kind": "user",
    "methods": {},
    "version": 1
  }
}